:10000000805D0020353501002FCF0100093501004A
:100010000935010009350100093501000000000023
:10002000000000000000000000000000312D010071
:100030000935010000000000DD2C01000935010038
:10004000E12D010073DA0100E12D0100E12D010035
:10005000E12D0100E12D0100E12D0100E12D010064
:1000600021DA0100E12D0100E12D010059DA010042
:10007000E12D0100E12D0100E12D0100E12D010044
:10008000E12D0100E12D0100E12D0100E12D010034
:10009000E12D0100E12D0100E12D0100E12D010024
:1000A000E12D0100E12D0100E12D0100E12D010014
:1000B000E12D0100E12D0100E12D0100E12D010004
:1000C000E12D0100E12D0100E12D0100E12D0100F4
:1000D000E12D0100E12D0100E12D0100E12D0100E4
:1000E000E12D0100E12D0100E12D0100E12D0100D4
:1000F000E12D0100E12D0100E12D0100E12D0100C4
:1001000053B94AB9002908BF00281CBF4FF0FF317E
:100110004FF0FF3000F00CB8ADF1080C6DE904CEE3
:100120000CF0D8FCDDF804E0DDE9022304B07047F0
:10013000704700BF1FB51A4C207A8DF80100E07996
:100140008DF80000A079ADF804006079ADF80200E8
:10015000684606F0A1FC08B1A7211CE0E068029007
:1001600002A806F0AFFC08B1AB2114E00D4800680E
:10017000039003A80FF005FB08B1AF210BE0607EF0
:1001800006F0D2FC08B1B82105E0207E06F0C6FCDE
:10019000002803D0B921032000F034FA1FBD00006D
:1001A00050080020B00600002DE9FF4781460C46AC
:1001B000C01C90461146002220F00300CDE9000249
:1001C0000292039222788DF8052062788DF806203D
:1001D000A2788DF80720E2788DF8082022798DF832
:1001E0000920A27D8DF80A20E27E8DF80C20227F66
:1001F0008DF80D201F4A527912B122798DF80B200B
:1002000001B1002001A900F00BFC00990026084470
:1002100000902078617835460844C7B208E0237A18
:10022000E279A17960790DF0BFFC6D1C0644EDB256
:10023000BD42F4D30098C01C20F003000090B8F138
:10024000000F00D000203246394600F03DFE0099F4
:100250004246084400902146684600F00DF8009898
:10026000C01D20F00700009004B0A0EB0900BDE81D
:10027000F087000028000020F8B50446887816466C
:100280000D4670B12068C01C20F0030020606B8A0E
:10029000EA78A97806B1002000F09EFE21680844A3
:1002A0002060494FF87898B1287C88B1387908B136
:1002B000FF2200E025222068C01C20F003002060FF
:1002C000297C06B1002000F01BFF21680844206053
:1002D0003E48036873B1287960B12068C01C20F0E3
:1002E000030020602A7D297906B100209847216803
:1002F00008442060364802686AB1687D58B12068B9
:10030000C01C20F003002060697D06B100209047EA
:100310002168084420602F48D0F800C0BCF1000FCD
:1003200011D0A87D78B12068C01C20F003002060A7
:10033000697E00912B7EEA7DA97D06B10020E04711
:10034000216808442060787978B1287968B12068FC
:10035000C01C20F003002060AA7E297906B100208D
:1003600000F008FF216808442060687F4FF48C7714
:1003700068B12068C01C20F003002060CEB1697F06
:1003800000203A460DF033FC216808442060A87F25
:1003900000280DD02068C01C20F0030020606EB142
:1003A000A97F00203A460DF022FC21680844206015
:1003B000F8BD08F021FD697F2068E2E708F022FD22
:1003C000A97F2068EEE7000028000020340000200C
:1003D0003C0000203800002010B528B11422044948
:1003E00010F063F8002010BD6FF0150010BD000084
:1003F000D40600002DE9F0416FF02C06002871D1E1
:100400003B4C607810B1B011BDE8F08129B36FF0BA
:100410001500002AF8D0374B0E299D7862D2DFE80C
:1004200001F061070A0D1D203E4626494C512B3034
:10043000107818704AE01078587047E091780029D9
:10044000E2D0D1780029DFD011781B29DCD3517894
:100450001B29D9D31068C3F8050037E01068D860AD
:1004600034E01178DA789142CED399702EE0117889
:10047000A942C9D8D97029E01178A942C4D8997580
:1004800024E011780029BFD05178F929BCD800297F
:10049000BAD01088A3F817009078587616E0E17863
:1004A00011B111780229AFD3107818740EE01088BA
:1004B00058820BE01078187108E011780229A3D354
:1004C000197503E0117808299ED859750122094948
:1004D0000020FFF769FEB0F5803F05DB6FF00B00F1
:1004E00092E7FFE730468FE70121A1708CE700001B
:1004F000280000205008002010B5074C607820B17B
:1005000006F070FE20780CF045F900F085FE00F052
:100510005DFF0020607010BD2800002070B50C4603
:10052000050002D00CB1600702D06FF0150070BD5D
:1005300000F004F9A8B128460CF0F2F80A4D0022A8
:100540000A4928702046FFF72FFE0FF0C5FD002155
:10055000287806F023FEFFF7EDFD012068700020EB
:1005600070BD4FF0FF3070BD280000205008002003
:1005700030B589B005000CD00CF078F84FF0FF349E
:1005800020B10BF029FFB0F5FA7F05D9204609B05C
:1005900030BD6FF01500FAE7154C1648A56000F065
:1005A0000DFA00206070A070E0702071607101464B
:1005B000202268460FF0F3FF20220F4968460FF013
:1005C00074FF202269460D480FF06FFFEFF310848F
:1005D00072B600F02FFE0A4800F004FF18B1C521E2
:1005E000032000F00FF804B962B60020CFE7000046
:1005F0002800002035010000B4060000500800204B
:10060000690700000EB572B6154A9568DDB1002283
:1006100003466E460A2403E0B0FBF4F0521CD2B24B
:100620000028F9D1B0540AE0D8B2B0FBF4F7B3FB1C
:10063000F4F304FB1700521ED2B23030B054002A3B
:10064000F2D13046A847BFF34F8F06480168064AEB
:1006500001F4E06111430160BFF34F8F00BFFDE77C
:10066000280000200CED00E00400FA05064810B553
:1006700081784078014302D04FF0FF3010BD06F082
:10068000C1FD002010BD000028000020074810B563
:1006900081784278114302D04FF0FF3010BD012124
:1006A000C17006F0C1FD002010BD00002800002030
:1006B0000100000001010100001B1B0302000000FB
:1006C0004C1D000003001F00020000014900010052
:1006D00000000000D80C2D2F36AEE25C8026804C46
:1006E0003F4D16535096C773054A10B5526812B164
:1006F000BDE81040104792210420FFF783FF00005F
:1007000070080020054A10B5126812B1BDE810400B
:1007100010478C210420FFF775FF000070080020AF
:10072000054A10B5926812B1BDE8104010479821F3
:100730000420FFF767FF00007008002005480168EB
:1007400029B1416819B1806808B1012070470020C3
:10075000704700007008002002490DC881E80D00B4
:100760000020704770080020F8B5124C002625685C
:1007700011E00098022802D003280CD106E020687E
:1007800010B10020266005E028210CE0206868B147
:1007900001202660A847684600F0EAFD0028E8D05E
:1007A000052805D035210420FFF72CFF2D21FAE77D
:1007B000F8BD0000400000202DE9FC41254E054613
:1007C000001D06F584773060387858B1BA783C4619
:1007D000791C2846921C0FF068FE0020207004202F
:1007E000BDE8FC811B4801F043FB0446022804D00D
:1007F000042C07D0082C27D02AE0164928460CF0F4
:10080000B9FA25E030780A2804D105213E2000F00D
:1008100023F860B10F4928460CF011FB0028D3D013
:10082000A978287800F018F80028CDD010E0B0881A
:10083000ADF8000001A968460CF091FF0028C3D074
:10084000A7210820FFF7DEFE024928460CF0C0FA77
:100850002046C5E77C08002070B50C46054600F030
:100860004BF8002802D03E2D01D0012070BD122C83
:1008700006D106480178022902D040780028F5D038
:100880002046BDE8704000F049B80000000200209A
:1008900001494870704700000002002070B50A78D6
:1008A00082703AB3012A25D81323037000230AE08B
:1008B00001EB430400EB4305A678EE706488240A3C
:1008C0005B1C2C71DBB29342F2D300230BE000BF20
:1008D00001EB430500EB43042E796671AD882D0AC8
:1008E0005B1CA571DBB29342F2D3012101EB8200C4
:1008F000C0B270BD002070BD402803D2401EC1B2FE
:10090000054805E0FF2805D04038C1B2024808304C
:100910000CF008BE012070474C000020401EC1B200
:1009200001480CF0FFBD00005C00002010B5074A34
:100930000168064B91614068D0611C681832A14380
:10094000116059688843506010BD000044000020C9
:10095000064A016891604068D060083241F48C21F9
:1009600011600349084350607047000044000020B4
:10097000F807400207484FF0FF3100220160C90C20
:10098000416000F108011F200A604A600831C1E996
:10099000000270474C00002010B5FFF7EBFF00206D
:1009A000FFF776FF0FF055F804460348006800B1E2
:1009B0008047204610BD0000640000200149086007
:1009C0007047000064000020022101804180002166
:1009D0000171D821417142F60C51C18001498160F9
:1009E000002070472F36AEE210B5092804D340F23C
:1009F00003211720FFF706FE0149085C10BD000027
:100A0000880A0020054A10B5515C814204D840F2A2
:100A1000B2211720FFF7F6FDC0B210BD880A0020F2
:100A20002DE9F84304468A7848780244FF2A02D91F
:100A300040F2AD1120E00A78824202D940F2B111B1
:100A40001AE00094DCB1002691F8018091F802C010
:100A5000087A0CEB0802814610444B7A4A79184414
:100A6000C5B2AA4200D91546C878A84200D90546A1
:100A7000A70706D04FF4E5711720FFF7C3FD012645
:100A8000E2E71A4F87F8008087F801C0B87008794C
:100A9000F8703A7188797871C879B87187F80790D9
:100AA0003B723146684600F01BF900210B46009866
:100AB000C01C20F00300009066B907EB81021063B0
:100AC000002005E0D2F830C04CF82030401CC0B205
:100AD000A842F7D30098491C00EB8500C9B20090EA
:100AE0000929E4D3001BBDE8F8830000880A002030
:100AF00070B50446857900F02FF902460C48E1797B
:100B000000EB85000EE0036B53F8213043B14A1C23
:100B1000E271A180006B50F821002060002070BDC0
:100B2000491CC9B29142EED3E171052070BD0000AD
:100B3000880A0020F0B4054611B1002038B901E060
:100B40000120FBE7012902D0002038B901E0012093
:100B5000FBE7022902D0002038B901E00120FBE7C1
:100B6000032902D0002038B901E00120FBE7042965
:100B700002D0002038B901E00120FBE7072902D0AC
:100B8000002038B901E00120FBE7082902D000204D
:100B900038B901E00120FBE7052902D0002078B92F
:100BA00001E00120FBE706290AD00020002826D01A
:100BB000154F00230129387804D0082904D005E016
:100BC0000120F3E7034601E07A78831807EB8106FA
:100BD00000224FF6FF747F5C0AE0D018D6F830C0D0
:100BE00080B25CF820C0BCF1000F04D0521C92B25D
:100BF0009742F2D820462880A04202D10020F0BCC3
:100C00007047F0BC00F034B8880A00202DE9F041AC
:100C10000746A0F57F400C4643F20206FF3820D07D
:100C2000092C02D30720BDE8F081384600F048F8CF
:100C3000050016D00C48294650F824203846904725
:100C40000A48002100EB8406306B40F8271020464C
:100C500000F078F802462946F0680CF061FF0020A9
:100C6000E1E73046DFE700009C0D0000880A002025
:100C700070B50E4605460CF08DFF58B10F4800EBDD
:100C80008604206B50F8250038B14FF4C571172049
:100C9000FFF7B8FC40F28911F9E7E06800280BD0B3
:100CA000304600F04FF80146E0680CF0E1FE002805
:100CB00002D0216B41F8250070BD0000880A002099
:100CC00070B50C4605460CF065FF002805D00348BA
:100CD00000EB8400006B50F8250070BD880A0020EE
:100CE0002DE9F843164F8846054600242868C01CA5
:100CF00020F003002860204600F024F8395D4143CD
:100D0000B8F1000F01D0002000E02868009018B171
:100D100000261EB1002002E00126FAE768460CF02A
:100D2000D8FE1EB907EB8401009ACA602968641CCA
:100D30000844E4B22860092CD8D3BDE8F883000049
:100D4000880A0020034931F810004FF6FC71C01CDE
:100D500008407047C00D00000F4B187859780844C0
:100D6000197A0844C2B29878824200D31046D978E2
:100D7000884200D208461A79904200D2104659792A
:100D8000884200D208469A79904200D21046D9791A
:100D9000884200D208467047880A0020EFF0000021
:100DA0001BEF000039E70000F1FF0000D100010057
:100DB000CF000100D700010067F1000041F1000001
:100DC0007803080460019000A80030011800680052
:100DD000C80000002DE9FF4F244C064681B0206872
:100DE0009A46934658B1017AB14203D9406850F807
:100DF000260040B143F2020005B0BDE8F08FA52106
:100E00001820FFF7FFFB194602980CF0E6FE80461B
:100E100058460E990CF0D7FE054608EB0500001D5C
:100E200087B22068A146394600680CF021FE040014
:100E30001AD0678025802946201D0E9D07465A46F8
:100E4000092300950CF08AFD2088414638440A2386
:100E5000029ACDF800A00CF081FDD9F8000040689E
:100E600040F826400020C7E70420C5E768000020BE
:100E700070B5144C23688BB1197A814212D95A6823
:100E800052F8201071B1002542F820504A881868A5
:100E90000CF046FE216800200A7A0CE0C6211820DA
:100EA000FFF7B0FB43F2020070BD4B6853F82030EF
:100EB00033B9401CC0B28242F7D808680CF025FE56
:100EC000002070BD680000202DE9F0410D460400AF
:100ED00090464FF0000606D00027A00705D08621D7
:100EE0001820FFF78FFB0127F7E7CDB1114600204F
:100EF0000CF0EFFD0C3000EB85068FB90A4F04F1C2
:100F00000C00AA003C602572606000EB8500206048
:100F1000002160680FF043FB414638680CF0D9FDB2
:100F20003046BDE8F0810000680000200A4910B595
:100F300002460968002059B10B7A934207D94968E3
:100F400051F82210002902D031F8040B084410BDDA
:100F5000FA211820FFF756FB680000202DE9F04128
:100F60001C4E456804460022A1B1012060707088C3
:100F70008308002004EB400104EB80060A830B8405
:100F800000FB035171602118401C0A750428F1D33D
:100F9000BDE8F0816270002004EB40010A830A84FE
:100FA00004EB80014A602118401C0A750428F3D321
:100FB00070880CF0B1FE074670880CF0B4FE6560D6
:100FC00020842918A1606784E560A0842161E784FA
:100FD000DEE700006C0000202DE9F04768B1002634
:100FE0001144DFF89C80CFB2002488F8007081079C
:100FF00005D04E210920FFF705FB0126F0E71F2B46
:1010000004D84FF6FF7101EA830509E05900FF2B70
:101010000CD903F1FF02B2EB430F00D211468DB29F
:101020004FF6FC71ED1C0D4036B109E07C22B2EBAD
:10103000430FF4D37C21F2E7C8F80400A8F802506B
:1010400007EB870104EBC10200214FF001090FE01B
:101050005EB9D8F8044001EB810300EB020C04F800
:10106000339004EBC303C3F804C0491C2A44C9B23B
:10107000B942EDD3D21D22F00700BDE8F087000091
:101080006C00002070B511480024214602780CE065
:10109000456801EB810315F8333023B101EB810181
:1010A00005EBC10403E0491CC9B29142F0D344B13D
:1010B0000025A57001212046FFF750FF257020462E
:1010C00070BDA9210920FFF79DFA00006C000020E7
:1010D000044810B5408884080CF025FE844200D3F3
:1010E000204610BD6C000020014840787047000089
:1010F0007400002001484068704700007400002020
:101100002DE9F8430C46074616462E2110460D469B
:1011100022460CF06CFC804657B1384641463246B8
:101120002B4600940CF01AFC03484760047046708C
:101130004046BDE8F8830000740000200248427871
:1011400001784068FFF7DCBF7400002010B5084C40
:1011500039B10621FFF756FCE288E16800FB021076
:1011600010BD0521FFF74EFC6288A168F6E700007C
:101170007C000020F8B50E46044617460321F720F0
:101180000CF092FE4FF6FC71C01C00EA0105C4B1E0
:10119000A00703D071211920FFF734FA0A48C46070
:1011A000C58000240BE001212046FFF7CFFF032379
:1011B000F722294600970CF071FE641CA4B2B442D9
:1011C000F1D306FB05F0F8BD7C00002030B50D49D9
:1011D00001204860821EC1F808230B498860002363
:1011E000C1F80032C1F80823084C2360251D28608F
:1011F0008860C1F808232360286006490448086015
:1012000030BD000000E0004000F0004000F500406C
:101210000000F63F08F5014010B5FFF7D7FF0CF0CE
:1012200063FE03490148086010BD00000000F63F5E
:1012300008F5014010B5FFF7C9FF0CF055FE00F0AE
:1012400087F805490348086000F0B8F8BDE8104089
:1012500000F0DCB80000F63F08F501402DE9F84F3A
:10126000824638480FF03FF8DFF8D8B028B10126A1
:101270000BF10100FF21017000E000264FF48075A2
:10128000314C4FF000082F1D01216160C4F800812E
:10129000C4F80481C4F804A52160DFF8B0901CE014
:1012A000D9F80000C00618D50E200CF02CFEEFF384
:1012B0001080009072B603212046C4F8041329461A
:1012C0000CF02EFE30B9394620460CF029FE08B944
:1012D0000FF0A0F8009800B962B6294620460CF03D
:1012E0001FFE28B9394620460CF01AFE0028D7D038
:1012F000394620460CF014FE0028C5D106BB9BF8E9
:1013000001108DF80010009900919DF8001009B1AE
:10131000012500E000250BF1010080F8008003208A
:10132000C4F80803C4F80481C4F800810E200CF04E
:10133000EAFD04480EF0EEFF15B11120BDE8F88F6C
:101340000020FBE70202002000E0004010ED00E07A
:1013500010B506480EF0DAFF18B127211D20FFF75F
:1013600051F902480021417010BD00000202002026
:1013700070B511490A68EAB100231D4601244A6884
:10138000521C4A600C2A00D34D600E7904FA06F212
:101390000E6816420BD0EFF3108372B60C689443BC
:1013A0000C6003B962B649680160002070BD5B1C27
:1013B0000C2BE4D3052070BD8C00002002480021D6
:1013C00001604160704700008C00002010B5044CA3
:1013D0002078FF2803D00BF0DDF9FF20207010BD2E
:1013E0000000002010B5084C617809B10F2010BD35
:1013F0000BF096F92070FF2801D0002010BD73215A
:101400001F20FFF7FFF80000000000200149002026
:10141000487070470000002005498A8E824218BF3C
:101420007047002081F832004FF6FF7088867047C1
:101430003C1000200A4A10B1012807D00EE0507875
:1014400060B1D2F802000860D08804E0107828B1BA
:10145000906808609089888001207047002070475C
:1014600004020020094A012340B1012818BF704737
:10147000137008689060888890817047537008687E
:10148000C2F802008888D080704700000402002063
:10149000064910B1012803D006E0487810B903E0EE
:1014A000087808B10120704700207047040200202E
:1014B0000149087770470000EA0600200246074805
:1014C00010B5007838B10648817821B1C01C05F00C
:1014D0001DFF012010BD002010BD0000F001002004
:1014E0007210002000487047451200202DE9F0419D
:1014F000124C00263546A07800288CBF104FBDE85E
:10150000F081601990F83B2190F80311012A02D074
:1015100090F84B0158B104EBC100BD5590F8532130
:1015200000F5AA713046731CDEB207F09BF9681C07
:10153000C5B2A078A842E4D8BDE8F08172100020BE
:10154000F401002004498A78824286BF084490F85A
:1015500043010020704700007210002004498A787F
:10156000824286BF01EB00108330002070470000EC
:1015700072100020054A01EB410102EB41010268B3
:10158000C1F80B218088A1F80F017047721000206C
:101590002DE9F041134C06460025A078002898BF9D
:1015A000BDE8F081C0B2A84214D904EB0510833025
:1015B00010D0611991F8431161B905EB450104EBB5
:1015C000410707F20B1132460CF0F9FCB7F80F0196
:1015D000A7F80F01681CC5B2A078A842E2D8BDE800
:1015E000F08100007210002004498A78824286BF90
:1015F00001EB0010C01C002070470000721000209A
:1016000008498A78824203D90A1892F843210AB11C
:101610000020704700EB400001EB400000F20B108F
:10162000704700007210002010B540F2D312002164
:1016300007480EF0B4FF0822FF2106480EF0AFFF66
:1016400005480021017041704FF46171418010BD67
:1016500072100020F4010020F001002070B50C464B
:10166000054605F079FF05F069FE0A482A4600782C
:1016700068B1094B997851B1002C0CBF03F183007C
:10168000D81C05F043FE05F083FE012070BD00204C
:1016900070BD0000F0010020721000200B4B93F889
:1016A00002C084459CBF00207047184490F8030195
:1016B00003EBC00090F853310B70D0F85411116057
:1016C000B0F858019080012070470000721000208F
:1016D00007498A7882429CBF00207047084490F8EE
:1016E000030101EBC00090F85A0100F001007047BF
:1016F0007210002010B500F077F9102814D00B4AB2
:101700000146002092F802C0BCF1000F0CD913185A
:1017100093F803318B4203D1102818BF10BD03E0AA
:10172000401CC0B28445F2D8082010BD72100020C1
:101730000246064810B500EB01100121833005F088
:10174000E5FDBDE8104005F023BE0000721000204A
:101750000148408870470000F00100202DE9F04169
:101760001746012500221E462C463A7000F03CF92F
:10177000102827D0184901EBC00292F85A2102F034
:1017800001023A708B780022002B1BD901EB020C6E
:101790009CF803C1844519D1102A13D0002E18BF1C
:1017A0003270887890420DD901EB021010F1030FCE
:1017B00008D0881890F84B4190F83B0101280CBFE5
:1017C0000125002545EA0400BDE8F081521CD2B293
:1017D0009342DBD8F6E700007210002006498A78B1
:1017E000824206D9084490F83B01002804BF01203A
:1017F00070470020704700007210002070B50D4641
:10180000044600F0F1F81A4A102814D002EBC00187
:1018100091F85A0110F0010F1CBF012070BD5078E3
:1018200008283CBF012081F85A011ED25078401C84
:101830005070012070BD5078082816D2137801200E
:10184000591C1170102B03D346212820FEF7DAFE15
:1018500002EBC3032968C3F85411A988A3F85811EF
:1018600083F8534183F85A01E0E7002070BD00007F
:10187000721000200148407870470000F0010020FD
:101880000149487070470000F001002070B42B48F7
:1018900000250178491E4BB2002B46DB00EBC3014B
:1018A00091F85A1111F0010F3BD04278D9B2521E73
:1018B000427000EBC10282F85A5190F802C0002237
:1018C000BCF1000F0BD9841894F803618E4202D149
:1018D000102A26D103E0521CD2B29445F3D80278E4
:1018E000521ED2B202708A421BD000EBC20200EB41
:1018F000C10CD2F85341CCF85341D2F85721CCF85F
:101900005721847890F800C00022002C09D986184D
:1019100096F8036166450CD1102A1CBF024482F878
:101920000311591E4BB2002BB8DA0548457070BC44
:101930007047521CD2B29442E9D8F2E772100020EC
:10194000F00100202DE9F041254D0026344628788D
:1019500000288CBF234FBDE8F08100BF05EBC40019
:1019600090F85A1111F0010F32D0AA7800212346C5
:10197000002A09D905EB010C9CF803C19C4504D051
:10198000491CC9B28A42F5D810218A4286BF05EBAC
:101990000112D31C0023002210290CD005EB010CEE
:1019A0009CF83B81B8F1010F04D09CF84BC1BCF10D
:1019B000000F00D00122521E134209D1B95590F8F0
:1019C000532100F5AA713046731CDEB206F04AFFBF
:1019D000601CC4B22878A042C0D8BDE8F0810000E5
:1019E00072100020F40100202DE9F00F204B024678
:1019F000002093F80080B8F1000F34D90F784E78AA
:101A00008D78CC7891F804C091F805A003EBC00163
:101A100091F8539191F854B182EA090987EA0B0BC6
:101A2000D94491F855B186EA0B0BD94491F856B1D7
:101A300085EA0B0BD94491F857B184EA0B0BD944D2
:101A400091F858B191F859118CEA0B0BD9448AEAF4
:101A5000010111EB090F04BFBDE8F00F7047401CF6
:101A6000C0B28045D2D8BDE8F00F1020704700000A
:101A700072100020254910B44A7801EBC003521EB1
:101A80004A70002283F85A2191F802C0BCF1000F7D
:101A90000DD98B1893F80341844204D1102A1CBF3E
:101AA00010BC704703E0521CD2B29445F1D80A78BA
:101AB000521ED2B20A70824204BF10BC704701EBC2
:101AC000C00301EBC202D2F853C1C3F853C1D2F82C
:101AD0005721C3F857218C7891F800C00022002CC0
:101AE0009CBF10BC70478B1893F80331634506D137
:101AF000102A1CBF114481F8030110BC7047521C0E
:101B0000D2B29442EFD810BC70470000721000208F
:101B100070B58CB000F110041D4616460DF1FF3C67
:101B20005FF0080014F8012C8CF8012014F8022D45
:101B30000CF8022F401EF5D101F1100C6C460DF18E
:101B40000F0108201CF8012C4A701CF8022D01F826
:101B5000022F401EF6D120460CF0EFF97EB16A1E2E
:101B600004F130005FF0080110F8013C537010F8E8
:101B7000023D02F8023F491EF6D10CB070BD089834
:101B80002860099868600A98A8600B98E8600CB013
:101B900070BD000070B50446012679B1584A002591
:101BA000012931D002297AD0032918BF70BD04F170
:101BB000CE01BDE87040CD300CF0FFBA4FF4816229
:101BC00000210EF0ECFC84F8CD604E4AC4F81621DA
:101BD0000722C4F81A2194F81621FE2022F00402EC
:101BE00084F8162184F84E017F2084F8C10046480D
:101BF00004F1A801C4F8B0000020C1E900004FF6CC
:101C0000FF70A4F8560170BDA4F8165384F80B5366
:101C100060693E49B2FBF0F20144B1FBF0F1C4F857
:101C2000EC1040F6B831A4F8F010E38BA4F8F650AD
:101C3000B4F8FAC0521C0CFB00FCBCFBF0FCA4F88E
:101C4000FAC040F2712C03FB0CF300EB03135B1E94
:101C5000B3FBF0F3A4F8F830A4F8FE202C4A04F10A
:101C6000A80100EB0212521EB2FBF0F24A640A6CA9
:101C70004243B2FBF0F008642631481E0CF09DFA96
:101C80000EF0A4FB38B1A06900F00CFB002804BFE3
:101C900084F8F86270BD84F8F85270BDFFE7D4F89C
:101CA000DC13B4F8E2C3636904F1A800A4F8F650A9
:101CB000B4F8FA40B2FBF1F25C43B4FBF1F4A0F8E3
:101CC000524040F271240CFB04FC01EB0C1CACF103
:101CD000010CBCFBF1FCA0F850C0521CA0F856202F
:101CE000B0F84820624301EB0212521EB2FBF1F23F
:101CF0004264026C5A43B2FBF1F1016470BD000012
:101D0000005A62022F49043400E0FCFF7FC3C9017E
:101D1000389C1C0041F64C5291423DBF0549A1FB45
:101D20000010400940F2E24128BFB0FBF1F080B260
:101D3000704700001F85EB5141F64C5291423DBF68
:101D40000549A1FB0010400940F2E24128BFB0FB69
:101D5000F1F0C0B2704700001F85EB5130B4002293
:101D6000A1F1010CBCF1000F12DD431E11F0010FB7
:101D700008BF13F8012F5C785FEA6C0C08D000BF35
:101D800013F8025F22435C782A43BCF1010CF7D1BF
:101D9000491E5CBF405C0243002A0CBF01200020AA
:101DA00030BC7047074991F9001008441428C4BF9B
:101DB0001420704710F17F0FB4BF6FF07E0040B267
:101DC000704700001202002008B57F208DF8000047
:101DD000684606F00DFA002804BF9DF9000008BD12
:101DE0009DF9001007484078404240B2084414284A
:101DF000C4BF142008BD10F17F0FB4BF6FF07E0088
:101E000040B208BD12020020074908B509788DF8D4
:101E100000109DF8001000291CBF002008BD0349D8
:101E20000EF07EF9012008BD1402002015020020EA
:101E30000449897D01F0040108430CBF0120002002
:101E400070470000DC0A00200348807D10F0020F7C
:101E50000CBF012000207047DC0A00200348807D71
:101E600010F0010F0CBF012000207047DC0A002099
:101E70002DE9F84FDFF83893CE4E01278346002531
:101E80007068007A8DF80000009800909DF80010AE
:101E90002A2908D199F8170028B1B9F818000028A4
:101EA00008BFBDE8F88F4FF0000874682846227A12
:101EB0008DF80020009A00929DF80030012B08BF99
:101EC0002C4610D0EFF3108172B62268726001B90F
:101ED00062B6217A8DF80010009900919DF80020DB
:101EE000002A08BF38460028DFD11CB3207A8DF8BD
:101EF00000009DF800A0AAF10200302880F039818E
:101F0000DFE800F01BA98E2EA082A9FDFCFDFDFDDF
:101F1000B2FDFB2EA082FDFD2EA05C7A5CFDD2827C
:101F200082FD2EFDFDFAFD2EFB26DFE8F936363662
:101F30003E4CF8DF0020BDE8F88F626822B94FF40C
:101F4000D2711020FEF75EFB594620469047CAE04A
:101F50006268002AF8D140F2AD111020FEF752FB62
:101F60006268002AF0D140F2BB111020FEF74AFB54
:101F70006268002AE8D140F2C7111020FEF742FB48
:101F8000626832B12572594620469047002853D0E6
:101F90000CE040F2CF111020FEF734FB626842B132
:101FA0005946204690472572002872D00820BDE887
:101FB000F88F40F2E1111020FEF724FB7E48036801
:101FC000002B78D0606852465946009098479BF89D
:101FD00000001E2805D01B286DD19BF804000028A6
:101FE00069D0009804210089FEF710FE20B34FF459
:101FF00000711020FEF706FB6268002AA4D14FF49E
:1020000003711020FEF7FEFA6C480368002B6AD0BB
:102010006068524659469847BAF11E0F39D062E0BF
:1020200003F0AEFD002808BF4FF001085BD06268E6
:102030001AB15946204690472BE040F23321102038
:10204000FEF7E0FA6268002A7FF47EAF40F23F219B
:102050001020FEF7D7FA6268002A7FF475AF40F2CD
:102060004B211020FEF7CEFA6068A8B10488204604
:10207000FEF75CFFA0B18BF801500F218BF8001028
:10208000ABF80640ABF808708BF8047000210BF039
:1020900090FC0420BDE8F88FCE211020FEF7B2FAA4
:1020A000AE211020FEF7AEFA62682AB159462046EA
:1020B00090474FF0010816E040F263211020FEF730
:1020C000A1FA6268002A7FF43FAF40F26F2110202E
:1020D000FEF798FA8BF801501F208BF80000D4F817
:1020E0000900CBF804002572BAF1210F46D0BAF1ED
:1020F000140F05E034E01AE029E03AE005E00DE0D5
:1021000042D0BAF1220F49D04DE06268002A7FF434
:102110001BAF40F281211020FEF774FA6268002A9A
:102120007FF412AF40F296211020FEF76BFA24489C
:10213000026822B1606828B10088594690470220A1
:10214000BDE8F88F40F29F211020FEF75BFA62682D
:10215000002A7FF4F9AE4FF42B711020FEF752FAEB
:102160006268002A7FF4F0AE40F2B7211020FEF73B
:1021700049FA40F2BD211020FEF744FAFFF764FE51
:1021800000287FF47DAE0EE09BF80E0000F0010009
:10219000FFF74EFE00287FF473AE04E0FFF75EFE0B
:1021A00000287FF46DAEB8F1000F7FF469AE70E7E0
:1021B000DC0A00200C0B00209C000020980000206E
:1021C000940000200A4910B508700A4800214161B6
:1021D0008161C161016212220EF0E1F9064801211C
:1021E00000F10C021170011D4160016010BD000082
:1021F0001A020020F80A00200C0B002038B5037AE0
:102200008DF800309DF8003023B140F217311020D6
:10221000FEF7F8F9F0B1416000F108010A70EFF340
:10222000108372B6DFF844C0C0F800C0ACF10401FE
:102230004A6852B1127A8DF80020009A00929DF8F7
:102240000040012C08BFC1F800C00A681060086097
:1022500033B904E040F2E2211020FEF7D3F962B670
:1022600003480078BDE838400AF078BA100B002027
:102270001A020020094810B5002141618161C16145
:10228000016212220EF08BF90548012200F10C01C7
:102290000A70011D4160016010BD0000F80A0020B5
:1022A0000C0B002070B46FF01F02010C02EA9025A5
:1022B0001F23A1F5AA4054381CBFA1F5AA40B0F1D4
:1022C000550009D0A1F52850AA381EBFA1F52A4013
:1022D000B0F1AA00012000D100204FF0000C6246AE
:1022E0004FEA0C048CEA0106F6431643B6F1FF3FB1
:1022F00011D005F001064FEA5C0C4CEAC63C03F035
:10230000010652086D085B08641C42EAC632162CAE
:10231000E8D370BC704770BC0020704710B50C4CFF
:1023200008212046FEF7FCF92068002804BF6068F9
:102330000028F5D0074C00BF4FF008012046FEF7FB
:10234000EFF92068002804BF60680028F4D010BDB1
:10235000A0000020A8000020094A0A48D2E9001382
:1023600048434B4083EAB11181EA432111604FEAAF
:10237000F0604FEAF34100EB8000516070470000CD
:10238000A0000020BB79379E094A0A48D2E9001311
:1023900048434B4083EAB11181EA432111604FEA7F
:1023A000F0604FEAF34100EB80005160704700009D
:1023B000A8000020BB79379E2DE9F0410446807CBF
:1023C000002816BF02280020012084F8680018B3F6
:1023D000607E68B3D4F81300C4F86900B4F817003D
:1023E000A4F86D00A07C022816BF0328012100215B
:1023F000A1764FF00800E07694F868004FF00107EE
:102400004FF00008012804BF94F86E2012F0C00FAE
:102410001BD0012811D016E004F169010020FFF75C
:1024200009F80028DED140F2B9412D20FEF7EAF884
:1024300040F2BD412D20FEF7E5F894F86E0000F063
:10244000C000402801D0002000E00120207731B1F9
:1024500094F86F0004F17001FFF74CF9E076FFF794
:1024600077F93749A0FB016508F0C0FF8019694181
:10247000C4E918010026E07EFFF770F80546A07E4B
:10248000002818BF002D03D0E07EFFF75BF858B19D
:1024900094F8820000281CBF207F00281DD094F8EB
:1024A000680001280ED013E084F86870324604F109
:1024B000690128460BF083FDE17E04F16900FFF716
:1024C00059F80AE094F86E0000F0C00040282FD0C0
:1024D000414604F169000BF061FD84F87680A07834
:1024E00010F0040F08BFBDE8F0810026E07EFFF782
:1024F0007BF8050008BFBDE8F0811021FFF72EFC36
:10250000002818BFBDE8F08184F87670324604F1E7
:10251000770128460BF053FD04F17701094CA068C0
:102520000CF01BF8A068BDE8F04101210CF01CB8CC
:10253000FEF7D8FF324604F169010BF040FDCCE70D
:1025400040420F00B0000020F8B504460D46303080
:102550000CF07FFAB4F802C0CCF3001129B1BDE849
:10256000F8402822614601F097BACCF340010029D7
:1025700014BFB4F85C60B4F8546021791D4A4FF47C
:102580007A73082932F8112002F2E732B2FBF3F72E
:1025900008BF40230AD0042908BF102306D002290F
:1025A00007BF042312220823192200E0142213FB80
:1025B00002F2082908BF402319D0042908BF2E239E
:1025C00015D0002302290CBF1821282119441144D9
:1025D00011FB00716FF07F0202EBC0100144CDF8D7
:1025E00000C062792B46304600F0F0FEF8BD4FF493
:1025F000A871EBE74C3A00002DE9F04F80468FB010
:102600000C46C269D8E90501D8E90076D8E903A9E2
:102610000592CDE90301D8E90801D8F82820CDE9D1
:102620000601089201A80CF08CFAA07A60F3174911
:10263000207860F30707B4F80100ADF800009DF8BA
:10264000000000F00101C0F3400241EA4201C0F382
:10265000800241EA8201C0F3C00241EAC201C0F334
:10266000001241EA0211C0F3401241EA4211C0F3E4
:10267000801041EA801B207D6BF31F47012818BFA3
:10268000022803D0032808BF08200ED1617860F328
:10269000070611F0100F0FD1A17D012918BF0229E3
:1026A00008D0032908BF082104D040F2EA210620FF
:1026B000FDF7A8FF61F30F26CAF30741012908D0EF
:1026C000617A01A80CF018FA207D012102280FD1AF
:1026D0000BE00421082808BF61F30706C6F30720B2
:1026E000082808BF61F30F26EAE7607D401CC1B2ED
:1026F000A07E401CC2B201A80CF094F9380C10F076
:10270000080F4FF0000524D101A80CF0A2F9617860
:1027100011F0100F7FD02822594601F0BDF900BFFB
:1027200040F2712100F2D920B0FBF1F000FB01F57D
:10273000D4F8020040F27122000A4143D4F80500A7
:10274000000A50438D4298BF0D4602D9854288BF8A
:102750000546A07C60F30F29207E012818BF0020C9
:1027600060F3070AD8F84C000BF0E9FA8346D8F872
:102770004C000BF090FB834528BF584698B101A947
:102780000A91390CADF82C108DF83460310A8DF8AF
:1027900035100C950AA901F063F8002802BF452006
:1027A0000FB0BDE8F08FC8F80CA0C8F80070C8E9F9
:1027B0000165DDE90301059AC8F81090C8F81C20EE
:1027C000C8E90501DDE90601089AC8F82820C8E92A
:1027D00008010198C8F83000BDF80800A8F83400D6
:1027E000E07A002816BF02280020012088F86F0038
:1027F000E068C8F87000208AA8F87400E07D98F8B6
:10280000461060F3071188F846100FB04FF0000033
:10281000BDE8F08FFFE70346F0B221494FF47A722A
:10282000082831F8101001F2E731B1FBF2F208BFCD
:102830004FF0400C0DD0042808BF4FF0100C08D00A
:10284000022807BF4FF0040C12214FF0080C192189
:1028500000E014211CFB01F1082808BF40251BD013
:10286000042808BF2E2517D002280CBF18202820C6
:102870002844084410FB03206FF07F0101EBC311D3
:102880004518FEF725FC390C0091C6F307220123F9
:10289000294600F09BFD43E74FF4A870E8E70000ED
:1028A0004C3A0000114A10B500211170104CA06084
:1028B000107820B140F22D312D20FDF7A3FE1160DC
:1028C00051609160D160116151619161D16111627A
:1028D00004F042FE04F032FDE068002818BF10BD8D
:1028E0004FF44C712D20FDF78DFE00001C0B0020D5
:1028F000B000002002490148C8607047803A0000DB
:10290000B000002002494860C96809680847000013
:10291000B00000200B4910B50878002818BF0C241F
:1029200001D0204610BD00240C604C608C60CC604F
:102930000C614C618C61CC610C6204F00DFE04F002
:10294000FDFCEEE71C0B0020054910B509780129B4
:102950001CBF002010BD00F019FF002010BD0000BA
:102960001C0B00202DE9F04104468078C0F3C00024
:1029700058B13C23FF222046216A00F0DDFF1122DE
:102980001E4904F18600FFF739FCA0784FF00005DE
:1029900010F0010F20D0206A3C26078804F016FCB6
:1029A000A8B9217884F8BB10A4F8BC7084F8BA6088
:1029B000607B10B984F8BE5003E094F8480084F8B6
:1029C000BE0016220E4904F1B000FFF717FC0120EB
:1029D00084F88100BDE8F0814FF6FF773C2604F0D3
:1029E000F5FB0028F3D1217884F8BB10A4F8BC7063
:1029F00084F8BA60607B0028DFD1DBE7A1E9000042
:102A000049E900002DE9F041734E0F00044627D03C
:102A100004F130000CF072F8C0B9A078C0F3C00027
:102A2000002838D004F130000CF013F8054604F10A
:102A300030000CF063F8281AC0B20CF08FF87168FF
:102A40000844706004F130000CF083F804F13000A9
:102A50000CF00FF805F01AFC2179252005F0E2FBB7
:102A60005E4D94F876800021A8680180017801F01D
:102A7000DF010170618813292DD011DC102908BFF6
:102A800002213DD0122908BF062139D040F27261DF
:102A90002D20FDF7B7FD2046BDE8F04100F076BEE1
:102AA000152918BF1D29F1D14FF001010BF033FD9D
:102AB000A868B8F1000F017801F0DF0141F02001B2
:102AC000017013D004F177010BF047FD0121A868D4
:102AD0000BF04AFD16E000210BF01DFDA8680178FF
:102AE00001F0DF0141F0200101700BE004F1700101
:102AF0000BF033FD94F86F10A8680BF035FD01E082
:102B00000BF009FDA04604F16901A8680BF035FD42
:102B100098F86810A8680BF037FD60881D2818BF6A
:102B2000152805D094F85420216DA8680BF0E3FC1B
:102B3000A86805F063F90420307057B36088102846
:102B400023D004F13000B5680BF083FF074604F191
:102B500030000BF0D3FF381A401EC0B26188282223
:102B600000F0C0FF0544A078C0F3C00030B1706829
:102B700005440BF0F7FF2844C4F8200122792946C8
:102B8000002005F089F920B913E02179002004F034
:102B9000BBFD6088132815D010DC102808BFBDE8E5
:102BA000F08112280ED000BF40F6BC512D20FDF759
:102BB00029FD40F6A8512D20FDF724FD152818BF4A
:102BC0001D28F1D12279BDE8F0414FF001014FF00D
:102BD000000005F0A9BA00001C0B0020B000002086
:102BE0002DE9F0434C4F814683B0387802281CBF52
:102BF0003878032805D040F62D514FF02D00FDF711
:102C000001FD464C6568287B18B1FFF7DDF885F8B3
:102C10004700D4F808C061684FF000089CF8000035
:102C20000A6A00F00F06002A18BF92F87380B9F103
:102C3000000F53D001F1690391F86820C0090CF12D
:102C400009010BF084F9002848D06568052E26D1CB
:102C5000A06890F8240000F01F0010281FD9E87B1E
:102C6000E8B1FF208DF800006A460521284600F0F3
:102C700025FB90B395F8E8008DF804009DF804005A
:102C800058BBA0682222C11C05F1E9000DF00DFC23
:102C90002522234905F1E000FFF7B0FA1EE0414686
:102CA000A0680BF07DFBC0B13A7860683146022A1B
:102CB0001CBF3A78032A05D040F606514FF02D008C
:102CC000FDF7A0FCE2683B7852696FF0070C0CEB53
:102CD0008303D2589047054601E0FFE70125B87B02
:102CE00018B104F039FC04F029FB002D04BF03B037
:102CF000BDE8F08360680BF047FF38B104F054FC86
:102D0000E068806803B0BDE8F0430047606803B046
:102D1000BDE8F04300F03ABD1C0B0020B0000020DD
:102D2000F5E9000030B583B0032902D0052972D03F
:102D30006DE00446FF208DF800006A46032120461E
:102D400000F0BCFA002862D0207B374D00283CD030
:102D50009DF8000094F8D6108DF804109DF804102A
:102D600099BB227884F8D720FF2811D004F1D9022A
:102D7000511EFEF793FC30B194F8D80040F00201E8
:102D800084F8D81012E041F208012D20FDF73AFC3A
:102D9000A8680178C1F3801284F8D820D0F8032005
:102DA000C4F8D920B0F80700A4F8DD0094F9470072
:102DB0007F2827D084F8DF007F2184F84710202265
:102DC0001A4904F1CE00FFF719FAA8680021018022
:102DD00004210BF0A0FB04F16901A8680BF0CDFB06
:102DE00094F86810A8680BF0CFFB94F85C20A16DF4
:102DF000A8680BF0D2FB0E4905200870A86804F003
:102E0000FDFF0EE040F66C612D20FDF7FBFB03B0EB
:102E1000012030BDFFE70749096811B18847002844
:102E2000F5D003B0002030BDB00000200BEA000058
:102E30001C0B0020C0000020094A0300506801D08C
:102E400000F0A4BC002908BF7047D168054A096991
:102E500012786FF00F0303EB8202895808470000D5
:102E6000B00000201C0B002070B5044640881028DC
:102E700010D0114DA87B20B104F0A0FA402004F03E
:102E800079FB0E48806804F0B9FFA07810F0040FB9
:102E90000BD105E02046BDE870400121FFF7B2BD2F
:102EA00000212279084605F03FF9002004F034FEA5
:102EB0000220287070BD00001C0B0020B000002014
:102EC00070B51C4C6568287B18B1FEF77DFF85F84E
:102ED0004700194DA87B18B104F03EFB04F02EFA10
:102EE00060680BF051FEA8B160684188C1F3001220
:102EF000002A04BFC1F3C00100290BD029780229A0
:102F00001CBF297803290AD040F637414FF02D0025
:102F1000FDF778FB6068BDE8704000F037BCE16801
:102F20002A78C9686FF0070303EB82028958BDE86D
:102F300070400847B00000201C0B00202DE9F04F26
:102F4000AB4D044689B0287800287DD12078FF2831
:102F50007AD00020A88168606870A87084F8810029
:102F6000A44804AEA44F0FC886E80F00F868406874
:102F7000079004A804F0BAFD04F098FE05F0AAFC3E
:102F800004F0EAFA04F0DAF99C4805F03BF99C48B1
:102F900005F042F9002009F0D5FC04F130000BF0F7
:102FA000D8FD04F130000BF064FD05F06FF92179D4
:102FB000252005F037F994F9100004F013FF21796A
:102FC000002004F05BFC0126A860002801BF2E70E1
:102FD000002009B0BDE8F08F04F15001E06C0AF068
:102FE00020FF814604F15801E06C0AF01DFF804685
:102FF000B9F1000F1CBF94F8240000284FD000BF87
:103000004FF0010A207F002801BFA07E0028A07891
:1030100010F0040F74D0D4E918016FF0004281EA77
:10302000020171EA000008D008F0E0F90246D4E994
:103030001830D21A71EB000002D2BAF1000F79D029
:10304000FEF786FB6F4900E025E0A0FB01BA08F01F
:10305000CDF910EB0B0041EB0A01C4E918014FF068
:10306000010BE07EFEF77AFA8246A07E002818BFA8
:10307000BAF1000F03D0E07EFEF764FAC8B194F80D
:10308000820000281CBF207F00282BD094F8680005
:1030900001281CD021E009B00C20BDE8F08FB8F168
:1030A000000F1ABF94F8250000284FF0000AA7D19E
:1030B000A8E7324684F8686004F1690150460AF0D6
:1030C0007EFFE17E04F16900FEF754FA0AE094F80D
:1030D0006E0000F0C000402813D0594604F169008A
:1030E0000AF05CFFA07810F0040F23D0E07EFEF71A
:1030F0007BFA5FEA000A1DD01021FEF72FFE40B1D7
:1031000018E0FEF7EFF9324604F169010AF057FFC3
:10311000E8E7324684F8766004F1770150460AF019
:103120004EFF04F17701B8680BF017FA0121B86877
:103130000BF01AFA94F8841049EA08008DF8001090
:103140009DF80010002918BF0121084319D0A0786C
:10315000C0F30010002804BFB4F84500C0F30B060C
:103160000FD100BFFFF7F8F8C0F30B00B042F9D061
:10317000B4F8451060F30B01A4F84510002084F862
:103180008400FEF7DFFBB868C01CFEF797F9A87350
:10319000A07810F0010F27D01B48D0E90210CDE92C
:1031A0000210FF20287702A8266AFDF7A1FCD8B9F3
:1031B000029CB44213D0727A607A06F10A0304F1D9
:1031C0000A010AF0C4FE50B1A0782877D4F80300B1
:1031D000C5F81D00B4F80700A5F8210004E002A816
:1031E000FDF786FC0028E3D009B00020BDE8F08F91
:1031F0001C0B0020603A0000B0000020D6BE898E73
:103200005555550040420F003C3A000010B50446A9
:10321000FFF794FE002818BF10BD0548007801286C
:1032200003D000212046FFF7EDFB002010BD000079
:103230001C0B00202DE9F0411E4E1F4D74682878AC
:10324000002808BFBDE8F081287802281CBF287834
:1032500003280CD1207B20B12746FEF7B5FD87F867
:103260004700A87B18B104F077F904F067F809F07B
:103270004DFB3078C0B120460BF086FCA0B17068E1
:103280008178C1F3C00121B1BDE8F0410121FFF710
:10329000B9BB044630300BF031FC28B12046BDE804
:1032A000F0410121FFF7AEBB2046BDE8F04100F040
:1032B0006DBA0000B00000201C0B00202DE9F04783
:1032C00090460D46044603291BBF94F88000002851
:1032D0004FF000094FF0010904F058F90646032D9C
:1032E00008D00127052D02BFA07810F00100BDE82D
:1032F000F08707E0A0780227C0F34000002808BF4D
:10330000BDE8F087B9F1000F59D12E48807B40B15C
:103310000AF0BFFE88F80000FF2802D0FEF7D8F9B7
:103320000643294D94F86F2004F17003A96811F841
:10333000030BC0F380100AF00AFE98F80010FF2972
:1033400004D0B8B9E07E884216D113E0A0B1A968D4
:1033500011F8030BC0F38010FEF7CCF98046FEF79E
:103360003DFA38B14046FEF73FF918B11021FEF79B
:10337000F5FC08B1012000E00020A17811F0040F55
:1033800001D0E0B118E0BEB9607C002818BFB84297
:1033900015D1A96811F8030BC0F38010FEF7AAF944
:1033A0000446FEF71BFA38B12046FEF71DF918B1A6
:1033B0001021FEF7D3FC10B10120BDE8F0870020FA
:1033C000BDE8F0871C0B0020B00000202DE9F84F6D
:1033D00004460A9800F0010AC0F3400B04F12600ED
:1033E000FF2828BFFF200A3080B2FF2828BFFF2017
:1033F0005AEA0B0EA4F1D90C1FFA8CFC0CF1F6055D
:1034000044F2552605FB06F54FEA955500950CFB51
:1034100006F54FEA955808F0FF056FF0F60615FB24
:1034200006F505EB0C0707F1080C1FFA8CFC0CF1F4
:1034300005094FF0000C4FF4C8754FF4BF7601F545
:10344000A57100F01681BBF1000F17D0082A04BF48
:10345000AB4640200CD0042A04BFB346102007D04E
:10346000022A07BF0CF1180B04200CF1280B0820CE
:1034700000EB800E0EEB801058441AE0DBB1082AF6
:1034800004BF28464FF0400B0FD0042A04BF30463B
:103490004FF0100B09D0022A07BF0CF118004FF0B3
:1034A000040B0CF128004FF0080B0BEB8B1B00EB0F
:1034B0008B00084419E0082A04BFAB464FF0400EC9
:1034C0000FD0042A04BFB3464FF0100E09D0022AD1
:1034D00007BF0CF1180B4FF0040E0CF1280B4FF046
:1034E000080E401D00FB0E1058449C3002F00C01E9
:1034F000002918BF2821084418BF00F5356017D1EE
:10350000082A04BFAB4640210CD0042A04BFB346AE
:10351000102107D0022A07BF0CF1180B04210CF16F
:10352000280B0821C1EBC10E0EEB41115944084490
:103530009830BAF1000F18D0082A08BF40210CD0EB
:10354000042A04BF3546102107D0022A07BF0CF118
:10355000180504210CF12805082101EB410202EBBA
:10356000011129440844BDE8F88FDBB1082A04BFE3
:1035700029464FF0400A0FD0042A04BF31464FF0CD
:10358000100A09D0022A07BF0CF118014FF0040AF3
:103590000CF128014FF0080A0AEB8A1A01EB8A01A4
:1035A00008441FE004F10E01FF2928BFFF2189B262
:1035B000082A04BFAA464FF0400B0FD0042A04BFCC
:1035C000B2464FF0100B09D0022A07BF0CF1180ABF
:1035D0004FF0040B0CF1280A4FF0080B491D01FBBA
:1035E0000B005044D92C98BFBDE8F88F93B10099D7
:1035F000082A7DD0042A7CD0022A7BD080E000BF3C
:1036000002EB821205EB820202F5A57201FB0200B9
:10361000BDE8F88F08F0FF01082A04BF2B464024BC
:103620000CD0042A04BF3346102407D0022A07BF57
:103630000CF1180304240CF12803082404EB84146F
:1036400003EB840303F5A57301FB03003904090CA4
:1036500008BFBDE8F88F082A7ED0042A7DD0022A50
:103660007CD085E009FB0100284400F5A570BDE889
:10367000F88FDBB1082A04BF28464FF0400A0FD06C
:10368000042A04BF30464FF0100A09D0022A07BFAF
:103690000CF118004FF0040A0CF128004FF0080A52
:1036A0000AEB8A1A00EB8A00084419E0082A04BFD2
:1036B000AA464FF0400B0FD0042A04BFB2464FF089
:1036C000100B09D0022A07BF0CF1180A4FF0040BA7
:1036D0000CF1280A4FF0080B401D00FB0B10504462
:1036E000D92C98BFBDE8F88FBBB10099082A02E039
:1036F0000DE009E00DE00AD0042A05D0022A08D026
:103700000CF1280508227BE73546102278E7402295
:1037100076E70CF11805042272E708F0FF01082A89
:1037200004BF2B4640240CD0042A04BF3346102487
:1037300007D0022A07BF0CF1180304240CF1280358
:10374000082404EB841403EB840303F5A57301FB45
:1037500003003904090C02E011E00DE011E008BF9C
:10376000BDE8F88F082A0AD0042A05D0022A08D01A
:103770000CF12805082175E73546102172E7402134
:1037800070E70CF1180504216CE700002DE9F04109
:103790000446B0F84800304E401CA4F84800B07B06
:1037A000002520B103F0D8FE03F0C8FDB5733570D5
:1037B00094F8810028B12046BDE8F04101210BF0CA
:1037C000F8B9607B002840D0B4F8481088423CD853
:1037D000012120460BF0EDF9A07810F0010F20D068
:1037E000206A4326078803F0F1FC002818BFBDE8D3
:1037F000F081207884F8BB00A4F8BC7084F8BA602B
:10380000607B10B984F8BE5003E094F8480084F857
:10381000BE0004F1B000BDE8F04116220F49FEF7EA
:10382000EDBC4FF6FF77432603F0D0FC002818BF0D
:10383000BDE8F081207884F8BB00A4F8BC7084F85F
:10384000BA60607B0028E0D1DCE72046BDE8F041AB
:1038500000210BF0AEB900001C0B002049E900006C
:10386000F8B50A7912F0180F5ED105460C0028D081
:10387000206800282AD00BF0ECF8237B627B042B15
:1038800008BF0823042A08BF08222A494FF47A7C7B
:10389000082B31F8131001F2E731B1FBFCF708BF38
:1038A0004FF0400C17D0042B08BF4FF0100C12D073
:1038B000022B07BF4FF0040C12214FF0080C192106
:1038C0000AE040F20B412D20FCF79CFE40F20C4137
:1038D0002D20FCF797FE14211CFB01F10026082B7C
:1038E00008BF4FF0400C21D0042B08BF4FF02E0C26
:1038F0001CD0B446022B0CBF182328236344194460
:1039000011FB00716FF07F0303EBC0100144A0882E
:10391000009000232846FFF759FDA16800F20B1024
:1039200081423CBF3046F8BD0120F8BD4FF4A8737A
:10393000E4E700004C3A000070B5044680F88F3090
:103940000888A4F89000FF2084F8AD004FF6FF70BF
:1039500016460D46A4F8AE00002B18BF70BD68696E
:103960000AF0D1FBA4F8A600A88BA4F8A800E88B65
:10397000A4F8AA0095F8F90284F8AC00A07E00250E
:1039800048B194F86800012805D194F86E0000F061
:10399000C00040282ED094F8820040B194F868000E
:1039A000012804BF94F86E0010F0C00F22D004F17B
:1039B0009A000CF0BAFB1C48FF2E80680178C1F316
:1039C000801184F89310D0F8031021D0C4F8A0100F
:1039D000B0F80700A4F8A40004F19402511E304688
:1039E000FDF75CFE78B194F8930040F0020084F893
:1039F000930070BDD4F86900C4F89A00B4F86D0063
:103A0000A4F89E00D7E740F68B412D20FCF7FAFD85
:103A1000C4F89410B0F80700A4F89800C4F8A050B7
:103A2000A4F8A45070BD0000B0000020024801219D
:103A30004068FEF7E7BF0000B00000200300000070
:103A400001000000000000000000010000002CA6A2
:103A5000E0A1000020A800000000000020A8000055
:103A6000C12E0000E12B0000392E000000000000F4
:103A7000252D0000692E00003DE9000043E900000B
:103A80000D320000353200002D3A00007C3A000073
:103A9000743A0000703A000010B5421E022A03D9A1
:103AA000CA212F20FCF7AEFD401E102902BF0A4993
:103AB00031F8100010BD122914BF1329074907D08F
:103AC000152908BF064903D0D8212F20FCF79AFDFD
:103AD00031F8100010BD00007CEB000076EB000018
:103AE00082EB0000421E10B5D2B2012A05D91D2971
:103AF0001ED0EE212F20FCF785FD132914D008DC01
:103B0000102902BF0D4830F8120010BD12290BD049
:103B100005E0152908BF0A4807D01D2908D04FF431
:103B200081712F20FCF76EFD064830F8120010BDA1
:103B300040F25A3110FB01F010BD00006AEB0000AA
:103B400072EB00006EEB00002DE9F043044690F8A4
:103B5000280183B016460D4640BB21466C4807F04D
:103B600017FA0746202821D05022002104F588703A
:103B70000CF015FD84F810714FF00108C4F81451D1
:103B800084F8288135B1FEF7FFFB00F00700401CE8
:103B900085F82C0320460AF09AFE002808BF61250C
:103BA00029D020460AF085FE20B10AE003B00C209F
:103BB000BDE8F08320460AF08EFE002808BF50259D
:103BC00000D05525684608F06FFF9DF800000028DA
:103BD00014BF0127002701A808F04EFF9DF804003C
:103BE000002818BF0120384318BF0A3508F0A2FE8C
:103BF000002818BF1835A4F83851022084F83A017B
:103C000084F83B81002584F830510CF0C0FA074657
:103C1000B4F8389108F02EFB4F4598BF4F46384412
:103C2000CC3087B220460AF04EFE78B30CF0C6F9CD
:103C300000F5CD6081B2304608F01EFC3044C4F877
:103C4000340107F0D3FBC0196941C4E9500184F87D
:103C50001881E58420460AF030FE48B12046012153
:103C6000FEF772FC00F59670301AA0F57F7005E043
:103C700001200AF073FF00F59670301AC4F81C0199
:103C80004FF0FF304108C4E954012BE0FFE7204624
:103C90000021FEF759FCDFF87C8000F59670C4F82F
:103CA0003401B8F80410002000291CBFE18C002961
:103CB00007D0FEF769FBB8F80410B0FBF1F201FB86
:103CC0001200074407F092FBC0196941002EC4E9B5
:103CD000500104BF4FF0FF30410801D08019694105
:103CE000C4E9540194F8100104F5987106F0C2FB80
:103CF00048B1A4F84851002120460AF017FE03B04D
:103D00000020BDE8F0834FF4F4713020FCF77AFC1A
:103D100047ED0000C4000020014988807047000082
:103D2000C40000200548002101700122827041700A
:103D300042F21071818000F003B80000C40000203E
:103D40002DE9F043414E85B0D6E90201CDE90001ED
:103D50006846FCF7CDFE0127002510BB009C94F8B7
:103D60002801C8B184F85871012120460AF0DEFD0F
:103D700094F8280180B194F8100106F09DFE94F8A3
:103D8000100106F0EDFF94F8100106F0C7FF0028BF
:103D900018BF84F828510FD06846FCF7A9FE002808
:103DA000DCD0DFF8AC8088F80170D6E900014FF66E
:103DB000FF77CDE9020127E040F205213020FCF732
:103DC00021FC029800281CBF90F83C1300291BD04E
:103DD0000088B84218BF4FF0200930D0012109F007
:103DE000CFFE040016D094F8840306F0B9FF84F8DF
:103DF0003C5394F8840306F091FF84F88493D6E949
:103E00000001CDE9020115E002A8FCF771FE0028CF
:103E1000D7D014E04FF490713020FCF7F3FB0298F8
:103E200000281CBF90F83C13002903D00088B8423A
:103E3000D4D104E002A8FCF75BFE0028EFD088F89C
:103E4000015005B00020BDE8F0830000603E000096
:103E5000C40000200149087070470000C400002021
:103E6000000000000000010000000000000002004F
:103E7000000000000000020000000000141E00000E
:103E8000301100000000000060EA000000000000A7
:103E9000000000000000000060EA0000F401FA00E9
:103EA000960064004B0032001E0014000A0005005A
:103EB0000200010010B5114C626892F87820032AC4
:103EC00004D040F655413220FCF79CFB022818BF75
:103ED000032805D040F663414FF03200FCF792FB17
:103EE000002918BF01F02EFB00206168A1F8C20074
:103EF00081F8C40081F8780010BD0000E0000020C7
:103F000001484068C0307047E00000202DE9F041D2
:103F1000384C616891F84800002816BF022800203C
:103F2000012081F8490001F14A01FDF783FA606838
:103F300090F84810022916BF03290121002180F8BA
:103F4000851090F8492000F14A034FF00007012A3C
:103F500004BF5B7913F0C00F0AD000F14A03012AB5
:103F600004D15A7902F0C002402A01D0002200E0B8
:103F7000012280F85C20002A04BF0029BDE8F081FE
:103F800000F1A808FDF7E4FB1B49A0FB016507F061
:103F90002DFA80196941C8E90001606890F8850030
:103FA00000281CBF0020FDF7F3FA0025606890F898
:103FB0005D1000291ABF90F85C100029BDE8F0815F
:103FC00090F8491000F14A02012904D1517901F019
:103FD000C001402905D03946BDE8F0414A3009F01A
:103FE000DDBFFDF77FFA61682A46BDE8F0414A313E
:103FF00009F0E5BFE000002040420F00034810B583
:1040000040688C300BF0CBFF002010BDE00000209A
:104010000B484068816E002904BF0C20704700F1F6
:104020006D01FF220A70002282660A7090F86C000F
:10403000012101FA00F003490860002070470000E8
:10404000E000002008F50140024610B50F480C467C
:104050008260C168A1B142680020A2F8C20082F863
:10406000C40082F8780001F043FA204600F034F8EA
:10407000002808BF10BD40F69D113220FCF7C2FA9F
:1040800040F697113220FCF7BDFA0000E000002056
:1040900002490148C860704744520000E000002017
:1040A00070B50446FDF726F80546FDF71DF80146F4
:1040B000284609F0AAFC010006D00648C06802683C
:1040C0002046BDE87040104740F6AB213220FCF797
:1040D00099FA0000E000002070B5204D064668689F
:1040E00090F8781001291FBF90F8780000280C2064
:1040F00070BDFDF723F801F0FBF96868002490F823
:10410000840030B103F028FA03F018F9686880F8E9
:1041100084404622002168680CF041FA6968012059
:1041200081F85D4081F8510081F8584081F8824063
:1041300081F85E6081F8B040072081F8500001F1FD
:104140006D00FF22027081F86C408C66047046306E
:1041500004700020C1F8B44070BD0000E0000020F1
:104160000548406890F84800002816BF0228002043
:104170000120FDF78DB90000E00000200178002249
:1041800011F0010F2349496809D042780023032A1E
:1041900008BF4B6581F85820012281F8C6200378BA
:1041A00013F0020F0ED083784FF0000C032B08BFE2
:1041B000C1F854C081F85830022301EB020C521CA4
:1041C0008CF8C630037813F0040F0CD0C3784FF08E
:1041D000000C032B08BFC1F854C081F858300A44C2
:1041E000082382F8C630027981F848204279002AF3
:1041F00016BF022A0123002381F8513081F859208B
:10420000827981F85020C07981F85B004FF000007E
:1042100070470000E00000200148C0684068004787
:10422000E000002038B5134C0022606890F86D1053
:104230008DF800109DF8001031B9816E00291CBF67
:1042400090F86C0007F0B4F86068002590F88400DE
:1042500030B103F081F903F071F8606880F88450A0
:104260006068A0F8C25080F8C45080F878500020F0
:1042700038BD0000E0000020064881B0406890F89A
:1042800040008DF800009DF80000002818BF0120B4
:1042900001B07047E00000200948406890F85810CD
:1042A00003290CBF0121002180F8421004BF416D99
:1042B0000988A0F84410172202493830FDF79EBF44
:1042C000E0000020614F00000248406890F858006C
:1042D00070470000E00000200C48416891F8580049
:1042E000032804D0012818BF022807D004E091F861
:1042F0005A00012808BF70470020704791F8590004
:10430000012814BF03280120F6D17047E0000020E7
:104310002DE9F0411D4E05460F4670681C4990F886
:1043200082000C5C204603F0B1FF706880F89A4070
:1043300090F8A410C6300C5C012C08BF25200ED0CC
:10434000022C08BF0D200AD0042C14BF082C0F200B
:1043500005D040F60C114FF03200FCF753F921461E
:1043600003F060FF384603F049FD21464FF001009D
:1043700035B103F083FA002808BFBDE8F08101E001
:1043800003F0C2F90120BDE8F0810000E000002048
:10439000080701002DE9F04F794C0F4606464068AA
:1043A000616883B090464FF0010A072F04BF0028D0
:1043B000B8F1000F0AD04FF000098DF80090EB46DD
:1043C000002848D0727C012A1AD020E081F88AA007
:1043D00091F8B3008DF804009DF80400002804BF94
:1043E00003B0BDE8F08FD1F8B40050300BF023FEDD
:1043F000002804BF606880F88BA003B0BDE8F08F90
:10440000427902F0C002402A08BF012500D00025F1
:10441000072F27D191F88420002A18BF002D11D032
:10442000B8F1000F04BF91F8C110012914D000BFEA
:1044300009F02FFE0146606880F8801080F8811036
:1044400080F888A0626892F88000FF2812D0FDF7FB
:104450003FF98DF800003BE00121FDF7FFF86168AE
:1044600081F88400606890F88400002818BF002D4F
:10447000E8D0DDE702F18003707C5A467168FDF7F1
:104480006DF990F0010F23D0606880F88A9080F871
:104490008B9000BF4FF00002B068002804BF03B04B
:1044A000BDE8F08F072F1CBF03B0BDE8F08F616837
:1044B00091F88010FF2912BF002A03B0BDE8F08FE9
:1044C000FDF736F9606880F889A003B0BDE8F08F89
:1044D00061689DF80000072F91F8515009D3082F0B
:1044E00029D8B8F1000F02D091F88A1019B3716879
:1044F00019B1002D08BF05461EE0B8F1000F05D127
:10450000707810F0100F18BF554615D10AF010FD45
:1045100030B1606890F88A00002818BF012000D1EF
:104520000020284305D1FDF7A5F9002808BF002584
:1045300002D0012500E04D46606880F88A5011489D
:1045400002682AB1414630469047616881F88B0085
:10455000706850B16068717C80F89B1071680A685F
:10456000C0F894208988A0F89810606890F88B10A3
:10457000002906BF90F88A00002801228CD189E723
:10458000E0000020F000002010B5FDF71DFC094CF4
:104590002070606890F8840038B102F0DDFF02F00E
:1045A000CDFE6168002081F8840002F0FDFF052047
:1045B00010BD0000E000002010B5FDF705FC034928
:1045C000087002F0F1FF052010BD0000E00000209F
:1045D00070B58AB00646FDF7F7FB114D69462870A5
:1045E000307800F00F042246304601F043F90022F3
:1045F00021466846FFF7CEFE2146684600F010F9D6
:104600006968044691F8841039B102F0A5FF02F000
:1046100095FE6868002180F884100AB0204670BDBD
:10462000E000002010B501788CB001F00F042246A4
:1046300002A901F01FF902F0B7FFFDF7C5FB224BFD
:10464000042C187038D103990A78596891F894C0ED
:10465000624531D1039A91F895C0527862452BD1C9
:10466000039A91F896C09278624525D1039A91F801
:1046700097C0D27862451FD1039A91F898C01279F9
:10468000624519D1039A91F899C05279624513D1C4
:104690009DF8192091F89BC062450DD17F280ED05E
:1046A0007F221A70009091F89A3091F8B02091F81A
:1046B000811002A800F0A8FE0CB0052010BD4FF438
:1046C00089613220FBF79EFFE00000202DE9F041D8
:1046D000524C064600216068032E00F17807A0685E
:1046E000018002D0052E04D057E0032109F013FF0A
:1046F00053E0052109F00FFFD4E90115486D8069E9
:10470000C5F80F00486D006AE874020A2A75000CAB
:104710006875486D4169008DFDF70EFBA875D4E9F9
:104720000105406D4169406AFDF7F4FAE875000A39
:104730002876D4E90105406D406909F0E4FC68760B
:10474000000AA876D4E90120516D898BC176090A47
:104750000177516DC98B4177090A8177516D1F30FF
:10476000CE310BF0DDFCD4E90105406D95F8241045
:1047700090F8D90001F0E00100F01F00084385F82F
:10478000240002F0BBFD95F82410E02201F01F0187
:1047900002EA4010084385F8240007F11C01A068D4
:1047A00009F0DBFE97F82310A06809F0DDFE6068D1
:1047B00000F14A0590F8497090F88510A1B190F881
:1047C00058104FF00108032906D190F85110002924
:1047D00018BF90F8830001D190F88000FCF710FF1B
:1047E00000281CBF474605462946A06809F0C5FEBB
:1047F0003946A06809F0C8FEA06803F0FFFA052E4C
:1048000018BFBDE8F08160682A68416DC1F80A20D0
:10481000AA88CA81406D4772BDE8F081E00000209F
:104820002DE9F04FEE4C7F260127002594F900304A
:10483000626883B0002967D001297CD0052702294E
:1048400007D006292AD002F0AFFE03B03846BDE8F3
:10485000F08F054602F0A8FE606890F88A10C9B192
:1048600090F85810012918BF022913D194F90010AB
:104870007F2900F0B081267090F89A2090F881305E
:10488000CDE90032029100F14A02FF2302212846BD
:1048900000F016FD03B03846BDE8F08F92F88A109C
:1048A00029B192F85810022907D001291DD002F031
:1048B0007BFE03B00520BDE8F08F7F2B00F08B81DD
:1048C000267092F89A1092F881C0CDF800C0CDE918
:1048D0000113FF2306214A3200F0F2FC61680B202D
:1048E00081F8B05003B0BDE8F08F7F2B00F07381EA
:1048F000267092F89A1092F881C0CDF800C0CDE9E8
:104900000113FF23062139E092F88A10002900F0F4
:10491000418192F85810022908D0012920D003299A
:104920002ED040F6DF613220FBF76CFE7F2B00F0CB
:104930005281267000E05EE092F89A1092F881C0F1
:10494000CDF800C0CDE90113FF2300214A3200F069
:10495000B7FC606880F8B07003B00B20BDE8F08F42
:104960007F2B00F03881267092F89A1092F881C05F
:10497000CDF800C0CDE90113FF2300214A32A6E0A3
:10498000416892F861C00B7863451FD14B7892F86B
:1049900062C063451AD18B7892F863C0634515D124
:1049A000CB7892F864C0634510D10B7992F865C05A
:1049B00063450BD1497992F86630994206D1407C23
:1049C00092F86010884208BF012000D0002092F8C1
:1049D0005A1001297ED000287CD1824890F883109B
:1049E000082978D090F88000884273D0D2E003B0D4
:1049F0000520BDE8F08F054692F8850092F88AA060
:104A0000002814BF4FF000094FF001090027A87CCF
:104A1000A968012807D1487900F0C000402808BFE4
:104A20004FF0010801D04FF0000892F85800032819
:104A300006D192F85100002818BF92F8830001D1E6
:104A400092F880000090FCF789FD5FEA000B43D0EC
:104A50000098FCF777FD002818BF4FF00109B8F166
:104A6000000F39D05846A96809F0E1FA07006068DC
:104A700090F849B018BF4BF0020B014690F858006F
:104A800003282DD002F090FDBAF1000FAFD060687E
:104A9000AA7C00F14A0190F849C0AB68604609F071
:104AA00056FA002808BF002F77D094F900007F281D
:104AB0006FD02670616891F89A2091F88130CDE925
:104AC0000032029001F14A025B460121284600F0C3
:104AD000F7FB8CE758E05DE0606890F849B0CCE700
:104AE000686891F8613002789A4220D1427891F852
:104AF00062309A421BD1827891F863309A4216D183
:104B0000C27891F864309A4211D1027991F86530F7
:104B10009A420CD1407991F86620904207D1687C86
:104B200091F86020904208BF4FF0010801D04FF08B
:104B300000082C4C94F88000082805D094F88320B5
:104B4000904208BF012600D0002657B9B9F1000FE6
:104B500009D091F84900AA7C4A31AB6809F0F7F90D
:104B600008B1012100E00021BAF1000F09D094F84A
:104B70005A00012803D020B958EA060001D00120CC
:104B800000E00020014205D003B00C20BDE8F08F0A
:104B900003E020E002F008FD29E7606890F8591072
:104BA000032918BF02297FF422AFB8F1000F3FF4A8
:104BB0001EAF94F900107F290DD0267090F89A202E
:104BC00090F88130CDE900320291FE2300F14A02D3
:104BD000012128467BE74FF489613220FBF712FD63
:104BE000E0000020100700202DE9F0410746FCF707
:104BF00081FA0446FCF778FA0146204608F005FFE2
:104C000005000ED0324C606890F8580001281CBF97
:104C1000022803280AD041F248514FF03200FBF736
:104C2000F1FC41F242513220FBF7ECFC6FF013062D
:104C300027B3284609F0DCFA18B9284609F010FC19
:104C4000E0B16168284691F87820052A04D241F243
:104C5000CC413220FBF7D6FC91F878200B2A04D304
:104C600041F2CD413220FBF7CDFCE26891F878109B
:104C7000526906EB8101515888471AE0606890F844
:104C80007810052904D241F238513220FBF7BAFCE2
:104C900090F878100B2904D341F239513220FBF7F8
:104CA000B1FCE16890F87800896906EB800008584B
:104CB00080470F2804D341F25D513220FBF7A2FC5C
:104CC000E168096951F82000BDE8F04100470000A3
:104CD000E000002010B518B1BDE8104000F068B940
:104CE000002908BF10BD1048416891F878200B2AB0
:104CF00004D241F218613220FBF784FC91F878204D
:104D00000F2A04D341F219613220FBF77BFCC06803
:104D100091F8781080686FF02B0202EB8101405807
:104D2000BDE8104000470000E000002010B5FCF78F
:104D3000E1F90446FCF7D8F90146204608F065FE83
:104D400050B103F05BF8002002F0E6FE05490620B2
:104D5000496881F8780010BD40F22B613220FBF7E2
:104D600051FC0000E0000020104910B5486890F8A0
:104D70007820062A04D241F246613220FBF742FC39
:104D800090F878200B2A04D341F247613220FBF7D8
:104D900039FCC96890F87800C9686FF0130202EB1B
:104DA00080000858BDE8104000470000E0000020E7
:104DB00010B5FDF709F80449087002F0F5FBBDE8ED
:104DC000104000F01DB90000E0000020F8B54B4D88
:104DD00004460E46686890F87810002918BF01292B
:104DE00003D003291CBF0C20F8BD217B80F8A41040
:104DF000A168C167227B00F1C601515C80F8C11037
:104E00002168C0F8A010207902281FD002F04EFFC0
:104E100002F0A2FB02F092FA03F05CFD384802F0C7
:104E200065FE384803F0F8F9374803F0EBF9686895
:104E300090F8700000280CBF0120022007F082FDCE
:104E4000207903281CBF304602F0D8FF607B78B180
:104E50006868012290F86D108DF800109DF8001020
:104E600031B9816E00291CBF90F86C0006F0A0FAE1
:104E70002079032801D028B11EE040F641213220DC
:104E8000FBF7C0FB6A68DFF884C0002092F850107E
:104E900092F882305B1CACFB03746408A4EB8404BE
:104EA000234482F8823021FA03F313F0010F03D177
:104EB000401CC0B20328EBD3686890F95E0002F092
:104EC00091FF31460120FFF723FA002808BFF8BD03
:104ED00000F028F9686890F8510060B1FCF706FB13
:104EE0000B48006803281CBF0020F8BD40F6532182
:104EF0003220FBF787FBFCF725FDF1E7E0000020FF
:104F00006052000055555500D6BE898EABAAAAAA9C
:104F10005015004038B5114C0022606890F86D10B3
:104F20008DF800109DF8001031B9816E00291CBF6A
:104F300090F86C0006F03CFA606890F87800002861
:104F400018BF012807D002281CBF0C2038BD00F074
:104F500057F8002038BD00F02BF8FAE7E0000020F9
:104F600010B5002048701920087010484068D0F82B
:104F7000420048600879012818BF10BDCC88002184
:104F8000204608F0FDFD002808BF10BD2046FCF7B4
:104F900043FA00212046FBF739FE002808BF10BD68
:104FA0004FF482613220FBF72DFB0000E00000206F
:104FB00070B50C4C0025606890F8840030B102F0A8
:104FC000CBFA02F0BBF9606880F884506068012178
:104FD00080F87810A0F8C25080F8C450BDE8704046
:104FE00000F0D4BDE0000020044841680020A1F892
:104FF000C20081F8C40081F878007047E00000200A
:105000002DE9F041FCF776F80446FCF76DF801460F
:10501000204608F0FAFC050037D000F029F9334C9F
:10502000606800F1C60290F8A4108E5C80F8C16040
:10503000002000F06FFC00282DD0606890F8780008
:10504000022803D029460020FFF762F9012E07BF8E
:1050500001270320002705202844FCF72FFA616868
:10506000002581F8840040B1002F18BF402616D0DB
:1050700002F0A4F9304602F07DFA606890F858100A
:10508000032918BF02291CD10FE040F219514FF03B
:105090003200FBF7B7FABDE8F041FFF789BF16F021
:1050A0000C0F14BF55265026E2E790F8A41000F12B
:1050B000C600085C012804D100210122084603F043
:1050C00033F86068FF2180F8801080F8811080F844
:1050D000895080F8885080F88A5080F88B5080F88A
:1050E000B050052180F87810BDE8F081E000002084
:1050F00010B5032000F00EFC68B10320FFF7E6FABC
:1051000001221146002003F00FF805490B204968E1
:1051100081F8780010BDBDE81040FFF749BF0000DE
:10512000E00000202DE9F0412E4C0021606880F85D
:10513000B01090F85C10002904BF90F88510002989
:1051400042D000F1A8056FF00042D5E9000181EAE4
:1051500002014FF0010771EA000035D006F046F970
:10516000D5E90023801A71EB03002DD3606800F1AC
:10517000A808FCF7EDFA1C49A0FB016506F036F91A
:1051800080196941C8E90001606890F8850000282D
:105190001CBF0120FCF7FCF90121606890F85D203C
:1051A000002A1CBF90F85C20002A0DD090F84930EE
:1051B00000F14A02012B04D1527902F0C002402AC8
:1051C00008D04A3008F0EAFE6168022081F87800D1
:1051D000BDE8F081FCF786F961683A464A3108F08B
:1051E000EEFEF1E7E000002040420F00E94F000032
:1051F000B14F000023EF000023EF000023EF000079
:105200000150000023EF000023EF000023EF000017
:1052100023EF000023EF0000F150000023EF000017
:1052200023EF000023EF00002D4D000000000000E0
:10523000B14D000089450000B9450000D14500008E
:1052400025460000CD4D0000154F000028520000FB
:105250002C520000EC5100003C520000345200007F
:10526000694D0000E94B0000D54C00002DEF000017
:1052700010B582B0FBF73EFF01AA694608F059FB62
:10528000009808F014FB04461C22002112300BF099
:1052900086F97F2084F82C00FF2184F82010E17427
:1052A00084F82510207F054920F060002030207709
:1052B00000208860888002B010BD0000F40000204B
:1052C0002DE9FF4F83B01D46DDE910890E460746E4
:1052D000DDF848B0FBF70EFF044608F0EAFA0128B3
:1052E00004BF07B0BDE8F08F204601AA694608F068
:1052F00020FB009808F0DBFA04461C220021123043
:105300000BF04DF94FF0010A84F812A056B1012EAE
:105310000DD0022E10D0062E13D040F20B313320C8
:10532000FBF770F9207F40F0130020770DE0207F1D
:1053300040F01500207708E0207F40F01000207733
:1053400003E0207F40F01200207704F11402561E83
:105350004046B8F1FF0F0CD03146FCF79FF920B161
:10536000307840F0020030700AE0DC213320FBF797
:1053700049F9787C30707868016811608088908085
:1053800084F81BB084F81EA00026E677FF2084F87E
:105390002000217F11F0040F08BF84F8250012D0EF
:1053A00004F12600411E022D18BF032D05D0BA6856
:1053B000136803609288828004E0059A1368036092
:1053C000928882800D704FF07F0084F82C0084F862
:1053D0002D90FBF78FFE0546FBF786FE0146012266
:1053E000284608F01BFA40B12046067207B0042296
:1053F000BDE8F04F0349FCF701BF40F22B313320E9
:10540000FBF700F9215600002DE9F04F83B01F464D
:1054100090460D460646DDF830A0FBF76BFE0446CD
:1054200008F047FA012804BF03B0BDE8F08F20461A
:1054300001AA694608F07DFA009808F038FA044697
:105440001C22002112300BF0AAF84FF0010984F859
:10545000129004F1140204F1130BFF2D0FD05946E2
:105460002846FCF71BF930B19BF8000040F0020021
:105470008BF800000BE0DC213320FBF7C3F8707CD5
:105480008BF800007068016811608088908084F853
:105490001BA0207F002568F3000040F01A00207751
:1054A00084F81E90E577FF2084F8200084F825001A
:1054B0007F2084F82C0084F82D70FBF71BFE064635
:1054C000FBF712FE01460122304608F0A7F940B171
:1054D0002046057203B00422BDE8F04F0349FCF7F3
:1054E0008DBE4FF456713320FBF78CF82156000027
:1054F00010B582B0FBF7FEFD01AA694608F019FA63
:10550000009808F0D4F904461C22002112300BF058
:1055100046F87F2084F82C00FF2184F82010E174E5
:1055200084F82510207F064920F060002030207785
:105530000020886008708880487002B010BD0000AC
:10554000F40000202DE9F04182B0FBF7D3FD01AA61
:10555000694608F0EEF9009808F0A9F9C07F002527
:10556000002804BF02B0BDE8F0812B4EB468ACB196
:10557000207F20F060004030207777782572042269
:1055800026492046FCF73AFE37B1657404222349C8
:1055900004F10900FCF732FEB5607570FBF7AAFD57
:1055A000074601AA694608F0C4F9009808F07FF997
:1055B0000446C07F4FF0000880B1384608F079F902
:1055C00028B3B8F1000F05D0204605720422134914
:1055D000FCF714FEB58002B0BDE8F081384608F053
:1055E00068F9012804BF02B0BDE8F081FBF77CFD3B
:1055F00001460122384608F011F9002818BF4FF083
:105600000108DAD140F2B1213320FAF7FBFF40F272
:10561000B5213320FAF7F6FFF400002021560000F0
:105620002DE9F04F8DB00C46FBF764FD009008F0BB
:105630006EF9060010D001464FF0010901AA00984A
:1056400008F085F90546FBF74FFDA84209D040F266
:10565000AB113320FAF7D6FF40F2A1113320FAF74D
:10566000D1FF02A9019809F0FAFC251D304608F087
:105670001EF9834600F112011C2228460AF015FF8C
:105680009BF81C00784E10F0100F4FF001084FF0FF
:10569000030A4FF000070FD010F0040F18BF2F724D
:1056A0003AD19DF8182005F11C0005990AF0FDFE7D
:1056B0009DF8180028722FE0307828B99BF82D004B
:1056C000252838BF86F80080307800281ABF9DF85A
:1056D000080002282F7218D0B3784FF0E50205F1C8
:1056E0001C01019808F0E0FD2872B1780844B07000
:1056F000019808F0D1FDB178884206D0A87A4FF021
:10570000000920F060002030A872A87AC0F341118F
:10571000012918BF37700DD067700520207001F087
:1057200055FD002863D02078052817D04821332064
:10573000FAF768FF3178002908BF86F80080EBD0BF
:10574000012902D0022906D0E6E710F0020F1CBFA3
:1057500002203070E0D186F800A0DDE7A07B10F0D9
:10576000100F28D01C22211D40480AF09EFE227BEB
:1057700004F120013E480AF098FE3C48817A11F07D
:10578000040F02D0C17CFE2919D04FF00402227010
:10579000016861604168A1600189A181817A11F08D
:1057A000080F18BFA27323D0027A1F2A40D98D2177
:1057B0003320FAF727FF49213320FAF723FF13217B
:1057C00021700178217184F805804178A171D0F8A9
:1057D0000210C4F80710C188A4F80B10FE216173F1
:1057E0004169C4F80E10018B6182407A207524E073
:1057F00011F0010F1CBF11F0020FA773D4D111F0EB
:10580000040F18BF84F80E80CED111F0010F05D11E
:1058100011F0020F1CBF0221A173C5D111F0030FBB
:1058200008BF84F80EA0BFD08A213320FAF7EAFE21
:105830000F4904F10F000AF038FEB9F1000F04BF60
:105840000DB0BDE8F08F009808F04CF838B1002199
:10585000009808F0AEF8B7700DB0BDE8F08F4FF4C7
:10586000F8713320FAF7CEFEF40000205512002024
:105870007112002070B516460C46054608F08CFDE6
:105880006074284608F085FDA074EB1CDFF880C02A
:10589000981D0021072E34D2DFE806F004131B33D5
:1058A000273304009CF800206270C4E901316A7853
:1058B000921F12F0FF02227401D0E06070BDE1601F
:1058C00070BD9CF801206270C4E901302174E16070
:1058D00070BD9CF802206270C4E901316A78921FA1
:1058E00012F0FF022274EAD0E7E79CF8032062700E
:1058F000C4E901316A78921F12F0FF022274DED0EF
:10590000DBE761706160A1602174E16070BD00003F
:105910000B07010070B5064605F068FD294DA96921
:10592000441AFEF7EDFA40780022072E45D2DFE850
:1059300006F0044242272E42420008280DD00428D7
:105940000FD0022813D00821012804BF2A202823C1
:1059500010D0F5210520FAF755FE402114200A4603
:1059600002E0102114202E224FF4A87302E004213B
:10597000122018231A4411FB002080B2983008E04E
:1059800010F00C0018BF282000F5577001E04FF40C
:10599000FC70A96B0444F4398C4209D3002600F052
:1059A00027FB30B1A86BF438844228BF002600D210
:1059B0000126304670BD012070BD40F2D631212055
:1059C000FAF720FEE007002000291CBF11207047D5
:1059D000F0B5264C074687B0207800281EBF0C2063
:1059E00007B0F0BDFEF78CFA064600206070042177
:1059F000217084F82E00A4F86C00054609F057FBCE
:105A0000014694F82F20002004EB8003401C9B6883
:105A100005EB010CC0B203EB0C058242F4D200216D
:105A20001348A56505F0B4FA3070202814D03B4621
:105A300000220121684600F041FB90B130786946B0
:105A400004F018FD00281EBF002007B0F0BD40F292
:105A500065312120FAF7D6FD40F262312120FAF7B4
:105A6000D1FD4FF459712120FAF7CCFDE007002059
:105A7000115D00002DE9F0410026FEF741FA3F4C90
:105A80000746207804281FBF207805280C20BDE891
:105A9000F0814FF001006070207D4FF00005B0B143
:105AA000EFF3108872B6207D00281CBF607D0028AF
:105AB00009D0FEF7B7FB207D28B102F09BF805F076
:105AC0008FFA25756575B8F1000F0ED10CE03878A6
:105AD00004F0F2FFB7F80300C004C00C05D00021A9
